:02000002F0000C
:108000000000042045820F009D820F009F820F0018
:10801000A1820F00A3820F00A5820F0000000000C4
:1080200000000000000000000000000021A50F007B
:10803000A9820F0000000000AB820F00AD820F008C
:10804000B1820F00B3820F00B5820F00B7820F001C
:10805000B9820F00BB820F00BD820F00BF820F00EC
:10806000C1820F00C3820F00C5820F00C7820F00BC
:10807000C9820F00CB820F00CD820F00CF820F008C
:1080800031D60F0091890F00D5820F00D7820F00E3
:10809000D9820F00DB820F00CD9F0F00DF820F001F
:1080A000E1820F00E3820F00E5820F00E7820F00FC
:1080B000E9820F00EB820F00AF820F00AF820F004A
:1080C000ED820F00EF820F00F1820F00F3820F00AC
:1080D000F5820F00F7820F00F9820F00FB820F007C
:1080E000FD820F00FF820F00A5D00F00AF820F00AE
:1080F000AF820F0005830F00AF820F0003830F00D4
:10810000314932480A1A02D0072291438D4630493C
:1081100030480A1A06D00722914381F309880222C7
:1081200082F314882C482D492D4A00F03CF82D4844
:108130002D492E4A00F037F82D482E492E4A00F0DE
:1081400032F82E482E492F4A00F02DF82E482F499C
:108150002F4A00F028F82F482F49304A00F023F822
:108160002F483049304A00F01EF83048304900228C
:1081700000F024F82F483049002200F01FF82F4A61
:1081800090471F481F49884205D00268043003B455
:10819000904703BCF7E700208646EC46002000210C
:1081A000274A9047FEE7884207D0521A05D0037845
:1081B00001300B700131013AF9D17047884202D089
:1081C00002700130FAE770470000042000F8032035
:1081D000000004200000042014DD0F00CC57002014
:1081E000DD57002008830F0008830F0018D90F0007
:1081F00014DD0F00CC570020CC5700208CD90F0085
:108200008CD90F008CD90F008CD90F008CD90F009E
:108210008CD90F008CD90F008CD90F0014DD0F0002
:1082200028DD0F00E0570020E0570020E057002035
:10823000AB860020AC860020AC86002069820F004F
:108240000DA40F000F484FF00701884385460E48E4
:1082500080470E48016841F470010160BFF34F8F01
:10826000BFF36F8FFFF74CBF09480A490A4A88429B
:1082700007D0521A05D0037801300B700131013A52
:10828000F9D170470000042059A50F0088ED00E0E7
:1082900078D90F00B8570020CC570020FEE7FEE742
:1082A000FEE7FEE7FEE7FEE7FEE7FEE7FEE7FEE7A6
:1082B000FEE7FEE7FEE7FEE7FEE7FEE7FEE7FEE796
:1082C000FEE7FEE7FEE7FEE7FEE7FEE7FEE7FEE786
:1082D000FEE7FEE7FEE7FEE7FEE7FEE7FEE7FEE776
:1082E000FEE7FEE7FEE7FEE7FEE7FEE7FEE7FEE766
:1082F000FEE7FEE7FEE7FEE7FEE7FEE7FEE7FEE756
:08830000FEE7FEE7FEE700BF07
:108308004B1C30B5DB00044612F003009BB20DD1C4
:10831800074D2A601A44074B1A60074B1870074B21
:108328001870074B1C80074B198030BD0720FCE7ED
:10833800E8570020E4570020E0570020F0570020BD
:10834800EC570020EE5700202DE9F347DFF8C080F6
:10835800B8F800308B4206460D4617464CD3002429
:108368000DF107008DF8074000F0F0F9244B254A7D
:1083780025481B78008892F800C084455FFA8CF184
:1083880038BF4C1CDBB238BFE4B2A3422ED01478FD
:108398001178CBB2884286BF0133DBB20023137059
:1083A8009DF8070000F0F6F94FF6FF739C4225D0C0
:1083B800DFF86090D9F800204FEAC40A42F8347018
:1083C80002EBC403AEB1A5B1104BB8F800001B68AE
:1083D8002A4604FB0030314605F00EFAD9F8003081
:1083E800534400209D8002B0BDE8F0874FF6FF742B
:1083F800D6E700209880F6E70920F4E70420F2E7A2
:10840800F0570020E0570020EE570020E4570020E6
:10841800EC570020E857002070B5104C104D22781A
:108428002B789A4200D170BD0E480F4A2378126803
:1084380006880E4802EBC301006852F83320898889
:1084480003FB060090470A4922780988D3B2914273
:1084580086BF0133DBB200232370E0E7F05700202A
:10846800E0570020EC570020E8570020E457002090
:10847800EE57002040684B6898428CBF00200120CE
:108488007047000037B505460C460A4801A900F0B8
:10849800BAFA60B10570446001A9064800F0DDFA37
:1084A80018B1054800F060FA002003B030BD042080
:1084B800FBE700BF54580020CC57002038B5104BBC
:1084C8001D780446A5B1C0B1037D03F0FF057BB15B
:1084D800D0E903309847A36863B1227D02F0FF0515
:1084E80042B16268074813446360214600F0CCFD3E
:1084F800284638BD00252575FAE70546F8E700BF88
:10850800F85700208CD90F002DE9F743054600F0F5
:108518001BFA002847D10021284600F01AFA38B182
:10852800584C236823B12068FFF7C8FF0023236055
:108538005548544F554EDFF85C8101A900F09DFA6B
:108548000446002C4ED1514F4E4CDFF84C81384632
:1085580000F0B0FD002800F08780426823685B685F
:10856800216851B12168D9B19A4219D223681B7D7B
:108578001BB12168384600F087FD384600F094FDAD
:108588004FF47A73426806460021404600F08EF99F
:10859800002862D1236813B9284600F07FF92660C5
:1085A80003B0BDE8F083374A13682BB113685B68E2
:1085B800126823F07F435360344800F07BFD044683
:1085C8000028A8D06368B3F1807F06D22046FFF761
:1085D80075FF204600F071FDF1E7636823F07F43E3
:1085E8006360F6E72378012B2CD0022B07D10024F7
:1085F800304600F059FD00283FD00475F8E7BBB9B4
:1086080063681A7DA2B901221A752846D3F8049026
:1086180000F0A5F9A9EB0000404588BF62686168D1
:1086280082BF536823F07F435360304600F02CFD2F
:1086380001A9154800F04CFA134801A900F01DFAE9
:1086480004467EE73B686168994208BF00233046CC
:1086580008BF3B6000F033FDEAE70D287FF477AFF1
:108668003046FFF72BFF72E72368002B98D1284686
:1086780003B0BDE8F04300F015B9054B01221A70AC
:10868800D6E700BF64580020545800208CD90F004A
:10869800F857002017FCFF00CC57002013B5002323
:1086A800ADF8043007238DF806300C490C48082330
:1086B800582200F073F9044668B90A4A0A4801A921
:1086C80000F0A8F8044630B90748012100F034F951
:1086D800064B01221A70204602B010BDFC5700203C
:1086E8005458002011850F00CC570020F85700205F
:1086F8003AB10368DA604A1E51425141996000203C
:10870800704707207047000038B50B4B9942044664
:108718000D460ED80261094800F021F9A3682844E3
:10872800606003B1A56021460020BDE83840FFF72E
:10873800A9BE072038BD00BF17FCFF00CC5700209A
:108748000023014603750120FFF79CBE70B5EFF3C7
:10875800108672B60C4A946801239CB993600B4B3F
:108768000B4DD3F8801029401160C3F88050D3F81E
:10877800841051604FF0FF32C3F88420047006B9AA
:1087880062B670BD0370FAE76858002000E100E0A7
:10879800FC06FFBD084B9A6810B55AB150B9EFF303
:1087A800108172B6054A1C6814605C685460986051
:1087B80001B962B610BD00BF6858002000E100E0B2
:1087C80030B53AB11368DB430A4D0144814204D104
:1087D800D84330BD4FF0FF33F6E710F8012B534074
:1087E800082213F0010418BF2C46013A84EA530307
:1087F800F7D1EBE72083B8ED435882B03BB10023B3
:10880800435043580193019B012002B0704718461A
:10881800FBE70000F0B51E4B44791E4D43F82420B9
:1088280005EBC403E6001B7983BB03680A88C3F819
:10883800082590F9043002798978002BA8BF03F144
:1088480060474FEA5313BCBF02F00F0C124F4FEAB8
:108858004111A8BF07F561474FEA8303C9B203F185
:108868006043B4BF07F80C1087F8001303F56143A1
:10887800012102F01F022E4401FA02F245F83400E9
:10888800C3F8802131711A600020F0BD0820FCE790
:108898007C5800207458002014ED00E00368012281
:1088A8001A607047036801225A6070472DE9F34146
:1088B80022F07F4501F150029200046892B24FF411
:1088C80080378F4098460023C4F80873C4F848736B
:1088D800A35004EB8101A3580193019BD1F84035C3
:1088E800C1F84055D4F804259B1A23F07F43012B87
:1088F800064605D10F4B4FF4046043F00103984737
:108908003168C1F84473D1F80425AD1A25F07F42C7
:108918002B0248BF42F07F42C8F10008904501DAB7
:10892800022A05DDC1F80473002002B0BDE8F08119
:108938000D20FAE7A0D90F0003680222C3F84423E8
:1089480009B1C3F80423704700684FF48271FFF738
:1089580053BF50318900006889B2FFF74DBF0368E3
:10896800D3F804057047000090F9043001215A0932
:1089780003F01F0301FA03F34032024941F82230A1
:10898800704700BF00E100E0024B034A1B68106813
:10899800184700BF7C5800207458002010B561B1FA
:1089A800B2FBF3F403FB1424A4B244B9C0E90014E5
:1089B80084608281C381204610BD0E20FCE7092017
:1089C800FAE782B050E8022FC188B2EB324F4FF07D
:1089D800000317BF92B241EA014142EA014104E0B3
:1089E8004268B2EB324F08BF012340E80212002A66
:1089F800E8D18DF807309DF80730002B0CBF112007
:108A0800002002B0704737B550E8013F9DB2C489D5
:108A180025448489A54228BF2D1B0489A54202BF8D
:108A2800BFF32F8F002207E0C5EA030540E8015491
:108A3800002CE9D14FF001028DF803200193019A2F
:108A48000A609DF8031001F0FF0321B1006810FAD5
:108A580082F003B030BD1846FBE70A884B889A427B
:108A680009D150E8012FC2EA024240E80123002B55
:108A7800F7D1012070470020704737B550E8023F12
:108A88001FFAA3F5C488A54202BFBFF32F8F0022A7
:108A98000DE0C48925448489A54228BF2D1BC3EA5B
:108AA800054540E80254002CE8D14FF001028DF84A
:108AB80003200193019A0A609DF8031001F0FF0357
:108AC80021B1006800EB124003B030BD1846FBE747
:108AD8000A884B889A4209D150E8022FC2EA2242FA
:108AE80040E80223002BF7D101207047002070478F
:108AF80010B5034653E8000F0A4643E8002494F0F3
:108B0800000FF7D110BD10B5034653E8000F40EA37
:108B1800010243E8002494F0000FF6D110BD10B50F
:108B2800034653E8002F02EA010043E8000494F0EA
:108B3800000FF6D110BD0121FFF7E5BF0021FFF7B7
:108B4800EEBF10B590B1D0E9012301689B1ADBB2E2
:108B58000A60013BDBB2FF2B026802D100201071D2
:108B680010BD11684C1C14600B70F2E70E20F7E77B
:108B780037B5054600240DF107008DF80740FFF7CB
:108B8800E5FD2A686B68116899420ED9481E106085
:108B980011F8013CEC68298A01FB0344AB681179A0
:108BA8001B1ADBB2994238BF13719DF80700FFF713
:108BB800F1FD204603B030BD37B5054600230DF161
:108BC80007000C468DF80730FFF7C0FD2A681368C8
:108BD800591C1160E968641A298AB4FBF1F41C7005
:108BE8009DF80700FFF7D6FD03B030BD0B680160A4
:108BF8001146184710B40468E468A4465DF8044BAD
:108C0800604710B404682469A4465DF8044B6047C3
:108C180070B550B90E4D0F4C0026641B1423B4FBDD
:108C2800F3F4B44208D1002010E00368002BF1D01F
:108C3800BDE87040DB6918472B6813B90136143555
:108C4800EFE7DB69284698470028F7D070BD00BFDA
:108C5800B8570020CC570020014B436000207047D4
:108C6800A8D90F000846704700207047024B1868C3
:108C7800003818BF012070478058002008B5024806
:108C8800FFF75CFF002008BD8058002008B510469B
:108C98001A4604F0B1FD002008BD00002DE9F0419E
:108CA800804686B011480F4616461D46FFF743FF1B
:108CB8000446C8B9AA083146384601F06BF80B4893
:108CC800FFF73CFFD8F8083053B101228DF8002097
:108CD8000C9A0592CDE90147CDE9036568469847A6
:108CE800204606B0BDE8F0811124F9E7805800203D
:108CF8002DE9F043814687B014480E46154698463C
:108D0800FFF719FF0446F0B90746BD4215D10F48D1
:108D1800FFF714FFD9F808305BB102228DF8002064
:108D28000022CDE90126CDE90325CDF81480684657
:108D38009847204607B0BDE8F08306EB073001F0FE
:108D480011F80137E1E71124F3E700BF805800204C
:108D580029DF704728DF704770B503689E6886B0C2
:108D680004460D466EB114220021684604F06DFDDC
:108D7800A3680593237901952BB1012B0DD0684683
:108D8800B04706B070BD01238DF800302369029307
:108D9800E368039363690493F1E702238DF80030D5
:108DA800E3681B030293F5E7084670470020704705
:108DB800024B187A003818BF01207047705A0020FB
:108DC800034B187A0122B0FA80F05A7440097047B0
:108DD800705A002008B510461A4604F00DFD002010
:108DE80008BD000008B514220021044804F02DFD38
:108DF8000348FFF7E6FD002008BD00BF705A0020B9
:108E0800605A002010B5094C094B43602046FFF713
:108E180092FE48B901F0BCF8064920741C230648A4
:108E28004FF4EE72FFF7BAFD002010BD705A002013
:108E3800D4D90F0084580020605A002038B5224D3C
:108E4800224C2B7A3BB922492248FFF716FE2060B4
:108E580008B9686038BD022324682B72237973B17E
:108E6800012B22D020460321FFF776FF00232B7227
:108E78006B6017491748BDE83840FFF729BED4E9A9
:108E88000523D21A142AD4E9031028BF1422920801
:108E9800012A38BF012219441844FFF759FF50B17D
:108EA8001128DFD101232B72D4E7D4E90303184436
:108EB800FFF750FFF3E72B7C002BCBD1BDE8384000
:108EC800022000F009B800BF705A0020885A00201C
:108ED800845A0020605A002038B5224C237A002B8F
:108EE8003FD0022B09D103282ED01F4B00221B682C
:108EF800E2601A793AB1012A20D0637C6BBBBDE8E5
:108F08003840FFF79BBFD3E905128D1A142D94BF83
:108F1800521914329A619142EFD102284FF000039E
:108F280008BF19462372104B18BF0D211868FFF7A8
:108F380013FF0E490E48FFF7CBFDDEE71A69013231
:108F48001A615B699A42E7E7E3680133082B01D8A5
:108F5800E360D2E70023E360DFE7BDE8384001F0D3
:108F680007B838BD705A0020885A0020845A00205B
:108F7800605A0020831E012B01D8FFF7ADBF704750
:108F880000F0FD03012B08D1044B00225A74421E45
:108F9800504250411874FFF751BF7047705A002073
:108FA80010B5064C201DFFF7C6FD28B9637C1BB918
:108FB800BDE81040FFF742BF10BD00BF705A002047
:108FC8002DE9F34180460D460F4801A916461F4674
:108FD800FFF719FD0446A8B11C22002104F035FC56
:108FE8002D0B0123237101A90748C4F80080A7604D
:108FF800E5606661FFF731FDFFF7D2FF002002B0A0
:10900800BDE8F0810420FAE7605A00202DE9F74313
:1090180081468846104801A917461E46FFF7F3FC0B
:109028000446B0B11C22002104F00FFC00250A9B65
:10903800A36001A9C4E9037807482571C4F8009022
:109048006661FFF70AFDFFF7ABFF284603B0BDE8EE
:10905800F0830420FAE700BF605A00200B684A68D2
:109068004360934208BF0023016008BF4360704714
:10907800436843B10268916852680B449342436065
:1090880004BF00234360704770B5446806460D4628
:10909800206818B1B3682946984718B923682B6027
:1090A800256070BD2468F3E74368186808B1026852
:1090B8001A607047436818687047006870474368CB
:1090C800186800B97047884203D102681A60012005
:1090D800704703460068F4E70023C0E90232C0E99C
:1090E80000118B781A44026191F903301A444261E5
:1090F8000878003818BF0120704738B542681178E1
:109108000346002938D002F10C014160147B2CB9C8
:10911800C2680168FFF7E0FF204638BD5078117932
:1091280000F03005302D14D1547B04F03004302C7D
:109138001CD190781969091A19610021907B08449B
:1091480019690144196192F90F20114459610120EC
:10915800E3E700F0F004202C08D1507910FB01F16E
:10916800002DEBD1986801309860E7E700F0C00067
:10917800802808BF0421F3E70846CEE770B54668A3
:1091880004460D4663681A78AA4204D15B7803F056
:109198000F03082B07D12046FFF7AFFF6368B342E0
:1091A800F0D1002070BD0120FCE743681A444260FA
:1091B80011B101399A4201D10120704713F8010B0E
:1091C80001F8010FF6E770B545686A7802F00F06F6
:1091D800082E86B003461FD103691C6800260CB907
:1091E80006B070BD236862689D6826732946684684
:1091F800FFF772FF6368049304F10C0305936B781F
:1092080003F0C003802B08BF231D684608BF0493E2
:10921800FFF7D9FFA468E2E712F0C00122D102F0FB
:10922800300010280CD15A691170072EAC681869E3
:109238000BD10146204606B0BDE8704000F01AB8D0
:109248009006F2D55B691970CAE72A79214624B1DC
:1092580006B0BDE8704004F0CFBA06B0BDE8704073
:1092680004F0F3BA8029BBD100690021920601609D
:10927800B6D5E7E77FB50A4601466846FFF72CFFF3
:1092880030B16846FFF79FFF6846FFF736FFF7E7FC
:1092980007B05DF804FB836810B504460BB90020DD
:1092A80010BD0368012298470028F8D0A368013B45
:1092B800A360F5E72DE9F3410F460DF1070180465C
:1092C800FFF7E9FF054620B90025284602B0BDE8AA
:1092D800F0819DF907309DF80740002B13DA04F060
:1092E8007F0407260DF107014046FFF7D4FF002849
:1092F800EAD09DF8072002F07F03B3401C43130611
:1093080006F1070601D43C60DFE7232EEAD1DBE74C
:1093180030B5044685B01546A9B90268114B9A4282
:1093280011D0102D06D82A4669462046FFF7F0FFCF
:1093380005B030BD102269462046FFF7E9FF002836
:10934800F6D0103DEDE7A368AB4201D20020EFE76D
:1093580023682A46204698470028F7D0A268521B5F
:10936800A260E5E7B3910F00F7B50E4601A90746DD
:109378001546FFF79FFFA0B1019A511C4FF000045A
:1093880004D2737803F0C003802B01D1204608E093
:1093980033798B42FAD329463846FFF7B9FF019B48
:1093A800EC5403B0F0BD73B50D4601A9064614464A
:1093B800FFF780FF90B1019AFF2A11D86B7803F06C
:1093C800C003802B02F101010AD02B798B4207D30D
:1093D8002146304601F8012BFFF79AFF02B070BD15
:1093E8000020FBE710B5034C82600022C0E9004171
:1093F800C26010BDB3910F002DE9F34100258046EE
:109408000E462F462C460DF107014046FFF743FF55
:10941800C0B19DF807C0A4F120030CF07F02C4F18D
:10942800200102FA03F322FA01F10B43A2401CF0D7
:10943800800F45EA020547EA030704F1070404D14F
:10944800C6E9005702B0BDE8F081462CDBD1002008
:10945800F8E737B50D4669461446FFF7CDFF70B1FA
:109468002B79082B0DD1DDE90032C4E90032DDE9A2
:109478000001914208BF98420CBF0120002003B0B0
:1094880030BD042B03D1009B23600022EFE7022BA1
:1094980003D1009B23809BB2F7E7012B04D1009BEB
:1094A800237003F0FF03F0E70020E8E737B50D4627
:1094B80069461446FFF7A0FF30B12B79082BDDE988
:1094C800001203D1C4E9001203B030BD042B4FEAE7
:1094D800E17009D121600B460246824208BF8B42E7
:1094E8000CBF01200020EFE7022B03D10BB2238031
:1094F800DA17F2E7012B02D14BB22370F8E700200C
:10950800E2E7F7B51F4600233B700D460B7013606A
:1095180001A904461646FFF7CDFE30B9A36813B972
:1095280001233B70002003B0F0BD019C002CF7D054
:10953800E30804F0070433602C70F4E713B504461D
:10954800052925D8DFE801F0030F1724242201227A
:1095580001A92046FFF7DCFE18B19DF90430002B65
:10956800F5DB02B010BD08220021204602B0BDE89C
:109578001040FFF7CDBE01A9FFF79CFE0028F0D0F0
:10958800019A00212046FFF7C3FEEAE70422EBE731
:109598000020E6E773B50D4601A90446FFF78AFEE9
:1095A800064618B90026304602B070BD94E80F0090
:1095B80085E80F0001998A42F4D3A960A3685B1A71
:1095C800A360F0E72DE9F04357687B7813F0C004F7
:1095D80089B006468C46154603D0402C69D0002435
:1095E8000CE003F00F02604903F03003202B51F820
:1095F800228025D006D8E3B1102B17D0204609B019
:10960800BDE8F083302BF9D16B6939781970072AD6
:109618000AD16B6828691A79214604F016F96B6833
:1096280029699868FFF726FE2A693FE06B690122DD
:109638001A702A693946434609B0BDE8F04318470D
:10964800BCF1020FD5F8149024D1042A22D804A919
:10965800FFF7A0FF04460028C1D0069B2BB169681C
:1096680099F800304A799A4205D8059B7360069BA1
:10967800002BC3D0B3E708792A6900FB032204A8AA
:10968800C04728B199F80030013389F80030E4E781
:109698000446EAE799F800307A799A429FD92A690C
:1096A8003979581C89F8000001FB032269683046A3
:1096B800C1E7D2F81080474657F8043B23B909B0F0
:1096C800BDE8F043FFF73ABF022914D104A9FFF718
:1096D80061FF002883D0D8F8003069683A4604A8AA
:1096E8009847044600283FF47AAF069B002BF2D136
:1096F800059B736082E7012926D005292CD0002913
:109708007FF46DAF0C460DF1040901340B2C3FF4C6
:1097180066AF012249463046FFF7FAFD00283FF4BC
:109728005EAF19F9013B002BEFDB104B049301AB43
:10973800CDE90534002307936968D8F800303A4624
:1097480004A89847044659E7082201A9FFF7E0FD55
:1097580008240028E9D142E704220DEB0201FFF7B3
:10976800D7FD0424F5E700BF00DA0F00B3910F001E
:109778002DE9F04F91B00446002604A8CDE9026611
:10978800FFF7AAFCA3683BBBDDE9053404A85D78B4
:10979800FFF7B3FC0028F7D115F0300F03D1059B74
:1097A8001B7803B10134002C00F0A980630902A9D9
:1097B8000022934240F09C8010AA02EB830304F03D
:1097C8001F0453F8383CC4F120044FF0FF30E04048
:1097D800C31A584258410DE00DF1030301AA0DF1D7
:1097E80002012046FFF78DFE38B99DF80330002BA3
:1097F800CAD1002011B0BDE8F08F019904A8FFF785
:10980800BDFC002850D1019BB3427DD3059D059A2C
:10981800537803F00F03082B7FD004A8FFF76DFCE3
:10982800059B9D42F3D14FF0FF36019FB7426BD3A2
:10983800089B9DF802A0D4F808801D684FF0010924
:10984800A368002D5DD098459CD12B68D3F800B053
:10985800BBF1000F08D053463A4629462046D84760
:109868000028C6D0AD68EBE7D3F808B09BF8003005
:109878009F42F7D16A6859460AA8FFF72DFC6B6822
:109888000E9305F10C030F939BF8013003F0C0030E
:10989800802B04BF2B1D0E930AAA85F80C90514605
:1098A8002046FFF78FFEDBE7059B5B7813F0300F50
:1098B8000FD1069A3F2A0CD8510910AB03EB81014E
:1098C80002F01F020123934051F8382C134341F84A
:1098D800383CE5682DB19DF80220019904AB20467B
:1098E800A8479DF8021004AA2046FFF76BFE10E077
:1098F80051F8045B01357FF47DAF013259E701204F
:1099080078E798457FF43EAF9DF802102046FFF7B0
:1099180015FE00287FF436AF6BE7167885E737B574
:109928000C460546114620460192FFF7A3FC019A12
:109938002146284603B0BDE83040FFF719BF70B58F
:1099480086B08E6801920C4602A90546FFF722FEF2
:1099580068B1A06858B16378019A03F03003202BEE
:10996800314602A805D1FFF7DAFF039B6B6006B00A
:1099780070BDFFF7FDFEF8E713B50C466946FFF723
:109988003BFD60B1DDE900134A0842EAC372C9072A
:109998004FEA530344BFD243DB43C4E9002302B078
:1099A80010BD37B50D4669461446FFF7E5FF70B19F
:1099B8002B79082B0DD1DDE90032C4E90032DDE94D
:1099C8000001914208BF98420CBF0120002003B05B
:1099D80030BD042B03D1009B2360DA17EFE7022B7D
:1099E80003D1BDF900302380F7E7012B03D19DF99E
:1099F80000302370F1E70020E9E713B504220C4694
:109A08000DEB0201FFF784FC08B1019B236002B053
:109A180010BD1146FFF7F1BF13B508220C46694681
:109A2800FFF776FC18B1DDE90023C4E9002302B092
:109A380010BD1146FFF7F0BF38B5202204460830A4
:109A48000D4600F08FFC202204F12800A91800F030
:109A580089FC002038BD00002DE9F041202B9AB088
:109A680028BF20230F4611461C4A0260DFF8748085
:109A78001A46044602A81E4600F074FC20992022CB
:109A88000AA800F07AFC01214046FFF731F80546A4
:109A9800BFF35F8FF0B900F0EBF802AB0AAA07F149
:109AA80008010096204602F09FF9044600F0EEF8FF
:109AB800BFF35F8FC8F8005044B1094948F2165205
:109AC80048F242538C4214BF14461C4620461AB032
:109AD800BDE8F08148F20454F8E700BFDD55AABBA1
:109AE8008408F0008C6A00200E4B984214D00AD8E3
:109AF800B8B10D4948F2165248F20153884214BFD2
:109B0800104618467047094B984208D0084948F251
:109B1800165248F20353F1E748F20350704748F2EF
:109B2800025070470102F0000002F0000202F0004B
:109B38000F02F00008B5083002F0C0F9BDE808408F
:109B4800FFF7D2BF13681F2B2DE9F34107460D46D7
:109B5800164626D9DFF8588001214046FEF7C8FF8F
:109B68000446BFF35F8FF8B900F082F8294607F181
:109B7800080002F015FA019000F088F8BFF35F8F33
:109B88000198C8F80040FFF7AFFF044608B9202342
:109B980033602021284600F0D9FB204602B0BDE8FA
:109BA800F08148F21454F8E748F20454F5E700BF8E
:109BB8008C6A00202DE9F04105460E46194801211E
:109BC8001446FEF795FFBFF35F8F38BB00F050F8DF
:109BD800DFF854800835B4F5805F274628BF4FF476
:109BE800805731463A46404603F006FE3A4641461B
:109BF800284602F07DF9E41B3E4468B9002CEAD1FE
:109C080000F044F8BFF35F8F064B00222046BDE802
:109C1800F0411A60FFF768BF0446F1E748F20450C4
:109C2800BDE8F0818C6A00208C5A0020024B00208D
:109C3800C3F80005704700BF00A0025038B50A4BB2
:109C480000251D60BFF35F8F084C0123C4F8003561
:109C580002F0D6F9C4F8005520B1052848F203509F
:109C680018BF032038BD00BF8C6A002000A0025036
:109C7800044B0122C3F80025034B4FF480625A605D
:109C8800704700BF00A0025000E100E0044B002232
:109C9800C3F80025034B4FF48062C3F88420704753
:109CA80000A0025000E100E0074B1B5C1F2B86BFA1
:109CB800064903F01F034FF0A041012202FA03F303
:109CC800C1F80C35704700BF48DA0F000003005098
:109CD800074B1B5C1F2B86BF064903F01F034FF081
:109CE800A041012202FA03F3C1F80835704700BF0A
:109CF80048DA0F000003005008B50020FFF7E8FF1E
:109D08000120FFF7E5FF0220FFF7E2FFBDE808406A
:109D18000320FFF7DDBFC20710B504460CD54FF08E
:109D2800A0430322C3F83427C3F83827C3F83C27D5
:109D3800C3F84027FFF7E0FFA3070AD54FF0A04379
:109D48000C22C3F82C27C3F83027C3F86027C3F8C0
:109D5800642710BD024AD2F80034002BFBD07047AC
:109D680000E001400A4908B50223C1F80435BFF3F1
:109D78006F8FBFF34F8FC1F80805FFF7EBFF002384
:109D8800C1F80435BFF36F8FBFF34F8F08BD00BF15
:109D980000E0014070B50E4E01231546C6F80435A3
:109DA800BFF36F8FBFF34F8F0024AC4207D100235E
:109DB800C6F80435BFF36F8FBFF34F8F70BD51F8EE
:109DC800243040F82430FFF7C5FF0134EDE700BF29
:109DD80000E0014010DF704711DF704713B50446FB
:109DE80009496846FFF73AF9019808B902B010BD69
:109DF800D0E900212046904718B16846FFF738F9A6
:109E0800F2E71120F2E700BF50DA0F0013B504465D
:109E180007496846FFF722F9019B0BB902B010BD4C
:109E28002046D3E9002190476846FFF721F9F3E778
:109E380068DA0F00064B9A6822B11A6822F4800289
:109E48001A607047034B4FF48002C3F880207047B4
:109E58006858002000E100E00C4A92F816333F2BC6
:109E68004FEA53110DD904290BD0094B996821B138
:109E78001A6842F480021A6070474FF48003136036
:109E8800704742F2020000F0BABA00BF00E100E0F9
:109E980068580020F7B5194F3C7864BB184E012567
:109EA80020463570FFF79AFF112821D02046FFF78A
:109EB800ADFF144B8DF80340186801900DF10300B5
:109EC800FEF744FC104901A8FFF784FF0446B0FAE6
:109ED80080F0400938709DF80300FEF75BFC3CB940
:109EE8000A4B34701C70FFF7B7FF2846FFF78EFF48
:109EF800204603B0F0BD0824FAE700BF916A0020AD
:109F0800906A00204CDA0F0001A40F00926A00202A
:109F1800F7B5154F3B781BB3144E01203070FFF78F
:109F28005DFF11284FF000051CD00220FFF76EFFDF
:109F38000DF107008DF80750FEF708FCFFF74CFFFE
:109F480004469DF807003D70FEF724FC2CB9032059
:109F58003470FFF76FFFFFF759FF204603B0F0BDDD
:109F68000824FAE72C46F8E7916A0020906A002056
:109F7800054B1B7833B1054B1B780BB1FFF7C8BFF6
:109F8800FFF788BF08207047906A0020916A002078
:109F9800014B1878704700BF916A002007B508493F
:109FA8006846FFF75BF8019B13B903B05DF804FB43
:109FB800D3E9002090476846FFF75AF8F3E700BF57
:109FC8005CDA0F00FFF7EABF60DF704769DF7047B0
:109FD80061DF704730B5134DADF5017D4FF4FA746C
:109FE8000DF1020103A8ADF80240FFF7F1FF70B9C7
:109FF800294601A8FFF732F8029B002BF0D003A8EE
:10A00800D3E90021904701A8FFF732F8F4E70528C3
:10A0180005D00DF5017DBDE8304000F0F0B90DF533
:10A02800017D30BD74DA0F00024B1B780BB1FFF7CE
:10A03800D1BF7047936A002018B1034B036000201A
:10A0480070470E20704700BFB8570020F0B507468C
:10A0580085B00D4600295DD02F4B0B600C220021E6
:10A0680001A803F0F2FB012606232A68ADF80830A0
:10A0780001A920208DF804708DF80660FFF7A6FF6F
:10A088000C22002101A803F0E0FB00242A688DF8C7
:10A09800056001A94020ADF80640FFF797FF0C22A4
:10A0A800214601A803F0D1FBF7232A68ADF8063052
:10A0B80001A923208DF80470FFF788FF0C222146A0
:10A0C80001A803F0C2FB2A688DF8046001A9304694
:10A0D800FFF77CFF0C22214601A803F0B6FB4FF4E2
:10A0E800B0632A68019301A9A120FFF76FFF0C2232
:10A0F800214601A803F0A9FB9DF804302A6864F3FF
:10A10800000301A9A0208DF80430FFF75FFF204667
:10A1180005B0F0BD0E20FBE7B857002008B5FFF7E3
:10A1280053FF10B9014B01221A7008BD936A002031
:10A138004BDF70471FB50E4C01A8FFF7F9FF70B948
:10A14800214602A8FEF78AFF039B002BF4D0019852
:10A15800D3E90021904702A8FEF78AFFF4E7052813
:10A1680004D004B0BDE8104000F049B904B010BDF7
:10A1780080DA0F0028B139B10023C1E90030184650
:10A18800704748F21050704748F21350704730B18A
:10A19800036848F240508B4208BF0020704748F2DD
:10A1A8001050704728B148F21150914208BF002062
:10A1B800704748F21050704770B506460C461D4669
:10A1C800FFF7D8FF50B9B3794AB1AB420AD111466B
:10A1D8002046FFF731FC08B9044B236070BD48F2F4
:10A1E8001050FBE748F21150F8E700BF7052464D97
:10A1F8002DE9F04383B00D4602AF04461149D7F864
:10A208002080284616469946FFF7C1FF98B96B6823
:10A21800796A5A7940465200FFF7C4FF58B976B1B7
:10A228000CB9AAB002ACCDF800804B46324629469C
:10A238002046FFF711FC0437BD46BDE8F08348F21D
:10A248001050F8E77052464D10B5044638B149B180
:10A258000B684160984708B9044B236010BD48F269
:10A268000150FBE748F21050F8E700BF6E5246482D
:10A27800F0B4134648B10768094EB7420AD161B134
:10A288002AB14368F0BC5B68184748F20153184686
:10A29800F0BC704748F20253F9E748F21053F6E76A
:10A2A8006E524648F0B460B107680C4EB7420CD104
:10A2B80071B143681568DC68A5420CD3F0BC9B6893
:10A2C800184748F20150F0BC704748F20250FAE7CC
:10A2D80048F21350F7E748F21450F4E76E52464834
:10A2E800F7B50446DDE9086715460193FFF7ACFFAB
:10A2F80068B9019A29462046FFF7BAFF38B93A46A5
:10A308003146204603B0BDE8F040FFF7CBBF03B0AD
:10A31800F0BD0000F8B50A4F0A4C0B4EE41B0123B0
:10A32800E40833700025A54203D1022333700020CE
:10A33800F8BD57F8353098470028F9D10135F2E7CC
:10A3480018D90F0020D90F00946A00200139014460
:10A35800814200D2704703780A7800F8012B01F88F
:10A368000139F5E7013A02440139824200D27047C7
:10A3780011F8013F02F80139F7E770B516460D46A6
:10A38800FFF7F0FF3246A9193044BDE87040FFF7E7
:10A39800E9BF0000BFF34F8F0549064BCA6802F4B6
:10A3A800E0621343CB60BFF34F8F00BFFDE700BFF0
:10A3B80000ED00E00400FA0508B507281BD8DFE81F
:10A3C80000F004121A1A1A041A040120FFF7A3FC59
:10A3D8000020FFF769FC0120FFF766FCBDE8084094
:10A3E8000220FFF775BC0120FFF772FCBDE80840AA
:10A3F8000220FFF759BC08BD08B5FFF7CBFF08B529
:10A40800FFF7C8FF0022104610B54FF4805102F044
:10A4180027FF024608B1FFF7BDFF0848C0F57E21B7
:10A4280002F01EFF0028F6D1054802F081FE04461E
:10A438000028F0D102F0FEFE204610BD00800F007B
:10A44800C1A30F0038B1054B0360054B43600123DE
:10A458000372002070470E20704700BF93A40F00BE
:10A468006DA40F0069B10B78022B0CD1022804D01F
:10A47800032814BF08201120704703230B70002005
:10A4880070470E2070470820704710B50C4681B100
:10A498000B78012B06D00ED9033B012B94BF082063
:10A4A800112010BD01F01AF80028FAD102232370F8
:10A4B800F7E70E20F5E70820F3E7000070B5144B26
:10A4C800144A0C21D21AB2FBF1F2816911F8025C2C
:10A4D800044635B900690021914205D10123236062
:10A4E8000EE04FF0FF30F6E71E68AE420CD1461C76
:10A4F80007D19D68D4E90001D4E90223A847206068
:10A5080070BD5E688642F4D001310C33E4E700BFC9
:10A518003CD90F0048D90F001EF0040F0CBFEFF311
:10A528000880EFF30980FFF7C9BF00BF008800F07B
:10A53800010070474FF08053D3F83021082A03BF39
:10A54800D3F83401B0FA80F04009002070470000C9
:10A5580008B54FF080430022C3F80C21C3F810213E
:10A56800C3F838254FF0805203F54043D2F804145D
:10A57800C3F82015D2F80814C3F82415D2F80C141F
:10A58800C3F82815D2F81014C3F82C15D2F81414EF
:10A59800C3F83015D2F81814C3F83415D2F81C14BF
:10A5A800C3F84015D2F82014C3F84415D2F824147F
:10A5B800C3F84815D2F82814C3F84C15D2F82C144F
:10A5C800C3F85015D2F83014C3F85415D2F834141F
:10A5D800C3F86015D2F83814C3F86415D2F83C14DF
:10A5E800C3F86815D2F84014C3F86C15D2F844249F
:10A5F800C3F87025FFF79EFF18B13B4B3B4AC3F8E1
:10A608008C26FFF797FF18B1394BFB22C3F81825A2
:10A61800FFF790FF70B14FF080414FF08053D1F8B1
:10A62800E42ED3F8583222F00F0203F00F0313433D
:10A63800C1F8E43EFFF77EFF20B12E4B4FF40072C5
:10A64800C3F840264FF08043D3F80024D20744BF14
:10A658006FF00102C3F80024274AD2F8883043F487
:10A668007003C2F88830BFF34F8FBFF36F8F4FF07E
:10A678001023D3F80022002A03DBD3F80432002B7E
:10A688002EDA1E4B0122C3F80425D3F80024002A31
:10A69800FBD04FF010221221C2F80012D3F8002488
:10A6A800002AFBD04FF010231222C3F80422134BC8
:10A6B800D3F80024002AFBD00022C3F80425D3F8DD
:10A6C8000024002AFBD0BFF34F8F0B490C4BCA68FC
:10A6D80002F4E0621343CB60BFF34F8F00BFFDE786
:10A6E800084B094A1A6008BD005000404881030021
:10A6F80000F000400090024000ED00E000E0014062
:10A708000400FA05D45700200090D003062810B59D
:10A71800044602D1002000F049FF044B1B681BB11E
:10A728002046BDE81040184710BD00BF986A0020B9
:10A7380008B5074B18600020FFF7E8FF054800F050
:10A748001DFF20B9BDE80840024800F043BE08BD1F
:10A75800986A002015A70F006CDF70476DDF7047FF
:10A7680072DF704773DF704774DF704775DF7047BB
:10A7780076DF70477ADF70477CDF70477DDF704790
:10A788007FDF704786DF70478FDF704790DF704745
:10A79800A8DF7047AADF7047ADDF7047AEDF7047AC
:10A7A800B0DF7047B1DF7047B5DF704762DF7047D1
:10A7B80066DF704713DF704701460148FEF7FCB9B2
:10A7C80028D90F0070B518228CB000210DEB0200BB
:10A7D80003F03BF82823089316231E4CADF80630E7
:10A7E8000023CDE903330593022306222370237146
:10A7F800592301250926A27063710322FE2365707F
:10A80800E270A3710DF10601A0198DF818508DF8AA
:10A818002D500294ADF80C60FFF7B0FFB8B9BDF841
:10A82800063026725A19E271BDF80C200A4C1344FE
:10A8380002A906AA2046ADF80C30FFF791FF30B9FF
:10A848002078FFF791FF20782946FFF78BFF0CB09F
:10A8580070BD00BF1A7B0020D8570020154938B5B5
:10A868000B68024613F0010022D0134882421ED022
:10A87800124A10884FF6FF72904213D043F0040337
:10A888000B601321FFF774FF90B90D4DC82445F0F4
:10A8980001054FF47A40A847013CFAD1BDE8384099
:10A8A800FFF736BB074B1878FFF75EFFF6E7002087
:10A8B80038BD00BF3C7B002020D90F00DA570020AC
:10A8C80000DC0F00D8570020F0B50388232B8BB08D
:10A8D800044635D80F2B04D8012B00F0F9800BB0B3
:10A8E800F0BD103B132BFAD801A252F823F000BF99
:10A8F80079A90F0097A90F00E7A80F0079AA0F0000
:10A90800B9AB0F00E7A80F00E7A80F00E7A80F00F2
:10A91800E7A80F00E7A80F00C7AB0F00E7A80F00D4
:10A92800E7A80F00E7A80F00E7A80F00A3AA0F00E9
:10A93800E7A80F00B1AA0F00E7A80F005FAA0F0051
:10A94800503B9AB2062ACAD8062BC8D801A252F898
:10A9580023F000BFC3A90F00E5AA0F00C7AB0F0083
:10A96800E7A80F00E7A80F001BAA0F00C5AA0F0051
:10A97800964D83882B80964B1B680BB10120984716
:10A98800944928880BB0BDE8F040FFF7EFBE8F4B25
:10A998004FF6FF721A80904B1B685A0704D4FFF7D2
:10A9A80011FF08B1FFF72BFD894B1B68002B96D0D0
:10A9B80002200BB0BDE8F0401847884EE288B38803
:10A9C8009A428CD18648FEF7D3F80546002886D0EF
:10A9D800228A04F1120102F00FFF1822002104A8B4
:10A9E80002F033FF08238DF810307E4B06937E4B20
:10A9F8000596CDE9073504A8238AADF8243000F080
:10AA0800DFFC00283FF46BAF75482946FEF7D4F801
:10AA180065E7E188F6291CD8CB1E9B070DD0CB1F14
:10AA28009BB2013B5A4202F0030203F0030301F117
:10AA3800FF3158BF5342C91A89B2644B1888FFF7CF
:10AA4800B3FE00283FF44BAF0BB0BDE8F040FFF772
:10AA5800D6BCF721F1E70022808804A9CDE90422B9
:10AA6800FFF794FE00283FF43AAFFFF7C8FC36E73B
:10AA7800564C02230493208802AB04AA42F605210F
:10AA88000593FFF789FE08B1FFF7B9FC002320887A
:10AA98001A468521FFF774FEE4E74C4B00F10801E4
:10AAA8001888FFF763FECCE7002304A980888DF897
:10AAB80010308DF81130FFF767FED3E7A379002B2C
:10AAC8007FF40DAF414B13211888FFF751FEB8E70B
:10AAD8003E4B00211888FFF76BFEB2E7A379002BE5
:10AAE8003FF4FDAE022B7FF4FAAE3C4D2189AA89D2
:10AAF80091427FF4F4AEA27B012A7FF4F0AE4FF4CA
:10AB080080320592228A314EADF81820628AADF85B
:10AB18001A2004F11402079201AF298A308804939D
:10AB280002AA02930397FFF737FE60B93846FFF78A
:10AB3800FDFC40B940F2FD133088ADF8143004A98B
:10AB4800FFF72EFECBE6002304A93088ADF81430B9
:10AB5800FFF726FE014600287FF4C1AE182204A89C
:10AB680002F073FE237D1F4A8DF81030022B0595E5
:10AB7800069216D0062B0ED0012B0ED11B4800F0E2
:10AB880015FD1B4B1A881B4B1A80637D0893D4F85C
:10AB98001630099301E0637D089304A800F010FCC7
:10ABA8009DE6134AB4F815301380124A1380F4E76F
:10ABB80000231A4619468088FFF7E4FD41E7002381
:10ABC800A0881A461946FFF7EDFD3AE7DA57002044
:10ABD800407B002006DC0F003C7B0020067B002029
:10ABE80028D90F0041AC0F00C1A70F0020D90F00D2
:10ABF800447B0020467B00207FB50023CDF80B3036
:10AC08008DF80F300A4BADF806109B89ADF8083067
:10AC180001238DF80A300DF10603CDE90430054B08
:10AC280002A91888FFF7BAFD07B05DF804FB00BF5A
:10AC3800067B0020DA57002010B5044686B00021B4
:10AC48000D2202A8019102F000FE2378082B0BD1F7
:10AC5800364A374913880988013B9BB21380D9B11A
:10AC6800D3B9032311802370627823788DF80530D7
:10AC78006021012A8DF804108DF806200ED00B2AC9
:10AC880012D100F087F98DF80700002000F07CF958
:10AC9800042101A8FFF7B0FF06B010BD062B05D0B0
:10ACA800082B29D0032B27D00321F2E7E1688DF880
:10ACB8000710D4E90123080A8DF80800080C090ECA
:10ACC8008DF80A10110A8DF80B208DF80C10110C54
:10ACD800120E8DF80E201A0A8DF80F308DF81020FC
:10ACE8001A0C1B0E8DF80D108DF809008DF8112027
:10ACF8008DF812300F21CCE7D4E90123110A8DF821
:10AD080007208DF80810110C120E8DF80A201A0A67
:10AD18008DF80B308DF80C201A0C1B0E8DF80910CD
:10AD28008DF80D208DF80E300B21B2E7467B002000
:10AD3800447B00202DE9F0413E4B94B005464FF688
:10AD4800FF721A8001204FF659632A4602A98DF82E
:10AD58000A00ADF80830FFF71BFD0446002865D14E
:10AD6800354B04AA03F110071646186859681446AB
:10AD780003C40833BB422246F7D1A91C3046FFF76B
:10AD880015FD0446002851D101461C220DA802F0E9
:10AD98005CFD9DF834308DF8044043F004038DF8D1
:10ADA80034300223ADF80C30AB788DF80E30032325
:10ADB8008DF80630F423CDE90A44ADF82C302B4643
:10ADC8004FF0110833F8040B0C9403AF01AE08AA36
:10ADD8000DA98DF8058008970996FFF7DBFC044656
:10ADE80020BB01461C220DA802F02FFD18238DF868
:10ADF80034300123ADF80C30AB788DF80E301323C6
:10AE08008DF806301723CDE90A44ADF82C302B46CF
:10AE180008AA33F80C0B8DF804400DA90C94CDE961
:10AE280008768DF80580FFF7B5FC0446204614B077
:10AE3800BDE8F081DA570020ECDB0F0030B5334C69
:10AE4800236813F0010585B05DD1314B1860314896
:10AE5800FDF777FE029500F0B8F800284CD12E488F
:10AE6800FFF7A8FC002847D1FFF714F8002843D1C2
:10AE780002A8FFF7E1F800283ED102A90120FFF758
:10AE8800E5F8002838D102A8FFF748F9002833D19F
:10AE980000F04CFB30B1214800F03CFB236843F044
:10AEA80002032360112302A88DF80430FFF756FC33
:10AEB80010BB9DF8093002A801338DF80930FFF75F
:10AEC8004BFCC8B923689B0718D514498869043115
:10AED80082B201A8FFF750FC70B91148FFF74AFC8D
:10AEE80050B91048FFF726FF30B9FFF76BFC18B9C7
:10AEF800236843F00103236005B030BD0A4802F01F
:10AF0800D7FC0949E4E70020F6E700BF3C7B0020B6
:10AF1800407B002028D90F0000800F009C6A002089
:10AF280006DC0F00067B0020E4DB0F0043690BB151
:10AF3800C06818477047000010B40549054C002246
:10AF4800904218BF214604485DF8044BFDF74EBEF9
:10AF5800B4D90F00E0D90F00B857002007B5009307
:10AF680013460A4601460348FDF744FE03B05DF860
:10AF780004FB00BFB857002013460A4601460148A3
:10AF8800FDF73FBEB8570020014B18700B207047E3
:10AF9800487B0020024B002218781A70704700BFC7
:10AFA800487B002018DF704730B585B00546102271
:10AFB8000C466846002102F048FCA4086846019542
:10AFC8000294FFF7EFFF05B030BD1FB50023CDE9B0
:10AFD80001330393684602230093FFF7E3FF05B0AC
:10AFE8005DF804FB4FF000534FF480521A600020C4
:10AFF80070470000014B06201B681847547B00204F
:10B008000A2803D90B38C0B2FFF7BEBF704700004B
:10B0180030B5054687B00020FDF7FAFD044638B183
:10B02800174A1821284607B0BDE83040FDF78CB90B
:10B0380001461822684602F008FC0423114A8DF8DC
:10B048000030114B116D1B68994214D10F4B104CF5
:10B05800186800F0CDFC8DF80100FFF7D1FF8DF8DE
:10B068000100D5E901136846984714B1204600F05D
:10B07800D5F907B030BD01238DF80130F1E700BFE5
:10B0880019B00F00587B00204C7B0020507B00201B
:10B09800FDAF0F0070B5044686B01822002168463F
:10B0A80002F0D3FB23788DF8003001228DF80120BF
:10B0B8000C2B00F27F81DFE813F00D0077000F0002
:10B0C800770077007D0177006E0077006C001C0028
:10B0D8002F0072008DF80420D4E9011368469847C0
:10B0E8009DF80130012B00F05A819C4B05201B680C
:10B0F80054E14FF08053D3F800210192D3F8042192
:10B108000292D3F80C2192020492D3F810219202F1
:10B1180003921B690593DFE74FF44053904D58683D
:10B1280090492E6A227C884214BF01230223012EF3
:10B1380008BF013352B902238DF80430EB6802933B
:10B14800894B0393C3F57E230493C5E7012A10D1E5
:10B1580088420ED14FF440531A78142A8CBF5B6989
:10B16800002302934FF4805303934FF440539B689A
:10B17800EAE79A4209D201238DF80430AB680293BA
:10B1880000F05CFAAB690390DEE7FF238DF804302A
:10B19800A2E7237CFAE7238AADF804309CE76F4BDB
:10B1A80007201B68984797E7062B704A01D0012BA8
:10B1B80001D1216911701178012904D0022957D0D1
:10B1C800002313709AE0013B072B85D801A252F89F
:10B1D80023F000BFFDB10F00E1B00F006DB20F000A
:10B1E8003DB20F00E1B00F0067B20F00E1B00F00F1
:10B1F80015B20F00594B03201B689847606900F08F
:10B20800FFFAFFF7FDFE8DF8010065E7A18A2069C6
:10B2180000F012FBFFF7F4FE514B8DF80100DA6BDA
:10B228001B6C0293E3680192002B3FF455AF206931
:10B23800984751E74E494F4800F024FBFFF7E0FEDE
:10B2480001288DF801007FF447AF002000F0E6F8F0
:10B2580000283FF441AF0A238DF801303CE74FF452
:10B26800807303933E4BDA6B1B6C0192029333E7B6
:10B27800013B072B3FF630AF01A252F823F000BF85
:10B28800A9B20F00E1B00F005BB30F0081B30F004C
:10B29800E1B00F00ABB30F00E1B00F0009B30F002E
:10B2A80000F0EAFA08B90823D6E762690AB9032365
:10B2B800D2E7C2F30B0333B1294B2D495B6D096803
:10B2C80013448B42F3D1B2F5805F01D90423C3E75D
:10B2D800234B2749586D096815188D42E3D85A64DD
:10B2E800DA6C9A6418651863224B1B6800220121E6
:10B2F8001844FFF741FE00283FF4EEAE0523ABE704
:10B3080000F0BAFA0028CED0154DA28AD5E914313A
:10B318005B1A696C13448B42C9D8164B2E6B18689C
:10B32800D4E903313044FFF719FE08B1E3687EE73A
:10B33800A18A2B6B20690B442B632B6D05F1480206
:10B348000B442B65FDF73CFA2B6DA8640290019322
:10B35800C2E6034B9A6C02921B6DF8E7547B0020FF
:10B36800587B0020DBE5B15100800F00DC5700203E
:10B378004C7B0020507B00200F4BD3E91402596C02
:10B38800821A8A428FD19A6C5865002120465964E6
:10B39800DA64FFF73DFE094B1B680420984706B0A6
:10B3A80070BD054B9A6C1B6D01934FF4805302924C
:10B3B800039391E602234FE7587B0020547B00203B
:10B3C80083681BB1024A1821FCF7BEBF07207047EB
:10B3D8009DB00F0038B50546C0B10120FFF7ACFDA0
:10B3E800044648B900F0E8F900F046FA30B9084BCD
:10B3F80000201D60FFF7C8FD204638BD05490648F6
:10B4080000F040FA0128F2D00324F5E70724F3E717
:10B41800547B00204C7B0020507B002070B5154EDB
:10B42800154905464FF4DC72304602F0AEF920B9F2
:10B438000DB9002070BDA847FBE700220E48012186
:10B44800FFF79AFD024698B95821301DFDF7B8F963
:10B458004FF4DC7230603146084802F0CDF90749F4
:10B4680005482B464FF4DC72FFF778FD0028E0D042
:10B478000320DFE7587B002000F00F00107D00203C
:10B4880038B5FFF759FD0446A8B9114D11494FF4D5
:10B49800DC72284602F0B0F92B6801330DD10C4854
:10B4A8004FF4DC72002102F0D0F9012300206B6018
:10B4B800FFF7B4FF48B1032407E022465821281DAE
:10B4C800FDF77EF92B688342E9D1204638BD00BFDD
:10B4D800587B002000F00F0029DF704738B50C4D6D
:10B4E8000446D5F89C3178B101330FD100221821D8
:10B4F8000430FDF765F921462060072205F5CE7076
:10B50800BDE83840FFF7E8BF0E2038BD0820FCE74B
:10B5180000F00F0008B528B103491C2202F06CF9AD
:10B52800002008BD0E20FCE79CF10F0010B5064C6A
:10B53800002218212046FDF743F954F8043C1B1A51
:10B548005842584110BD00BFA0F10F0010B50A4C79
:10B55800D4F85C31D4F89C211340013309D04FF45E
:10B568007F20FEF7FFFB572221464FF47F20FEF78E
:10B5780011FC002010BD00BF587B0020F8B5094F12
:10B58800094CE41B0646E4080025A54201D1002029
:10B59800F8BD57F83530304698470028F8D10135BE
:10B5A800F3E700BF20D90F0028D90F00F8B5094EDE
:10B5B800094CA41B0746E40800250436A54201D11E
:10B5C8000020F8BD56F83530384698470028F8D19D
:10B5D8000135F3E720D90F0028D90F0008B50C2250
:10B5E800002102F032F9024B00221A6308BD00BFA5
:10B5F800587B00204FF44053074A5968914201BFD5
:10B60800986800F6FF7020F47F6020F00F0018BFE4
:10B618004FF48050704700BFDBE5B15108B5FFF724
:10B62800E9FF054B9B69184400F6FF7020F47F6022
:10B6380020F00F0008BD00BF587B0020FFF7DABFDD
:10B648004FF480507047000010B50B4C236A012B53
:10B658000DD170B1E3694BB1FFF7CCFFA1690022AE
:10B66800FDF7AEF8E3691B1A5842584110BD002097
:10B67800FCE71846FAE700BF587B00202DE9F74F92
:10B68800284DDFF8B0B001911F462B6A009304469D
:10B6980016464FF000094FF4405AB9F1010F5FFA0E
:10B6A80089F81BD0B8F1020F24D0FFF7B7FF9EB17D
:10B6B800009B013B5A425A411B4B181AA04201D326
:10B6C800019BEBB1D2B909F10109B9F1030FE4D13A
:10B6D800A04218D2042022E03246EDE7FFF78AFFA5
:10B6E80037B9DAF80420B2EB0B0218BF0122E3E7FE
:10B6F8004A46E1E701224FF48050DDE7A042E9D352
:10B70800B8F1000F02D00948FFF768FF0848002683
:10B718000123C5E90463FFF761FF6C62304603B09B
:10B72800BDE8F08F587B002000500F00707B002090
:10B738007C7B0020DBE5B15130B50E490E4C8A6B9D
:10B7480085B06D4628465C31FDF74CFE95E80F0044
:10B7580084E80F00094B0A4AE36000231360094A92
:10B7680009491360094A204605B0BDE83040FEF794
:10B77800D6B800BF587B00200881002099B70F0079
:10B78800687F0020647F002090DB0F008C7F002002
:10B798005B689A68054B9A4207D1D0E901230449AE
:10B7A80001320A60034A013B1360704714DB0F0043
:10B7B800687F0020647F002010B50C4CA36B63B930
:10B7C80000230B4A1370FEF7A5FDBDE81040094A97
:10B7D80009490A484023FEF7EFBCFFF7ADFF0028F0
:10B7E800EED0636A003B18BF0123EAE7587B0020CC
:10B7F800A08100208CDA0F001881002024DA0F00C5
:10B8080038B5044678B1B0F5807F0ED8084D094B9D
:10B818000021202205F138001970296302F015F87B
:10B82800AC63012038BD0320FCE70420FAE700BF21
:10B83800587B0020A081002070B50E4C0646E06BB6
:10B84800A36B42189A420D4611D85C300A46204430
:10B85800314601F0D1FFE36B04F140022B44294645
:10B868003046E363FCF7ACFF2064012070BD032081
:10B87800FCE700BF587B0020014B1878704700BFD9
:10B88800A08100202DE9F04F4B4CD4E90E329A42AA
:10B8980085B00746884640F08B80DFF8489199F8D4
:10B8A800003053B1FFF7BAFE3860636AC8F8003059
:10B8B8000124204605B0BDE8F08FFFF73DFF0028C2
:10B8C8003DD03E4B93F89C4014B91A78002A36D0E4
:10B8D80000223A60C8F800204CB1394C93F838314E
:10B8E800A4F199062022039224B91324E1E7354EE6
:10B8F8002346F7E7002B43D103AB0193DFF8E8A019
:10B90800314B324ACDF800A01B68126830493148E3
:10B91800FEF7E6FC90BB2578402D2FD1DFF8CCB0A0
:10B928002A46611C584601F067FFCDE900B5039B24
:10B9380029492A485246FEF75BFC054608B105240A
:10B94800B7E7301D00F0FCF801280446B1D196F89D
:10B95800593089F80000ABB996F86820C2B1F56E85
:10B9680045B30022C8F80050012311462846FFF7C6
:10B9780085FEC8B9FFF752FE38609AE70A2498E7AF
:10B98800162496E7DA0703D596F85A2002B1F56D22
:10B998009B07E5D596F86030002BE1D0104B726E0E
:10B9A800C3F57E239A4201D9042482E71544D7E7D8
:10B9B80008247EE70F247CE7587B00208C7F00203A
:10B9C800C5800020907F0020647F0020687F0020D1
:10B9D80030DA0F00E87E002018810020A4810020C2
:10B9E80000800F00A08100206C7F00206081002073
:10B9F8002DE9FF47474B484F93F89C20009703F1E8
:10BA0800A4050833002A08BF1D4603AB019302466C
:10BA18000B468046894641484149424C4FF0200A2E
:10BA2800CDF80CA0FEF75CFC064620B117253E4871
:10BA3800FFF7D4FD13E0524605F16F01384601F0D7
:10BA4800A4FE0028F2D195F85530D3B96A6823626C
:10BA58000121E162A260A36CC4E9099301252022B7
:10BA68000021324801F0F1FEF422FF21304801F0B4
:10BA7800ECFE002328462363C4F8488004B0BDE8E0
:10BA8800F08703F0020ADB073ED508F50052294B80
:10BA9800506898423BD1AF6D916807F5FF5307F6A0
:10BAA800FF771F33C7F30B07DF1BB9422FD34FF4C0
:10BAB80040514B68834211D10B78142B82BF4B69DC
:10BAC8001D49B3FBF1F3117898BF3346142982BF9F
:10BAD80056691948B6FBF0F6B3420FD0BAF1000F19
:10BAE80015D01648FFF77AFDAC23E362AB6D6363AC
:10BAF800BAF1000FAFD06B68E360ACE7BAF1000FA2
:10BB080014BFAC23A523F0E7AA23E362F0E70525D9
:10BB18008DE700BF8C7F0020C87E0020E87E0020D3
:10BB280030DA0F00587B00207C7B0020907B0020BF
:10BB3800B47B0020DBE5B15140420F00707B002050
:10BB480090F8542070B50346002A5AD090F8550052
:10BB5800032856D893F86D20032A50D11A7A002A60
:10BB68004FD0DA68342A4ED14FF44051274C4D68F3
:10BB78001A7CA5422CD17AB15C696CB18D8903F12C
:10BB88001404002154F8046BAE421BD00131C9B231
:10BB98008A42F7D112202BE090B9012A12D95969AB
:10BBA80081B94FF4405103F114048D89014654F8CA
:10BBB800046BAE4206D00131C9B28A42F7D1E9E737
:10BBC8000128E7D01A7852B9012818BF0F200FE0D2
:10BBD80012B15A69002ADDD11A78002ADAD0012870
:10BBE8005B680B4A05D8906883422CBF012010205F
:10BBF80070BDD06883428CBF01201020F8E7142064
:10BC0800F6E70F20F4E71120F2E700BFDBE5B151BA
:10BC1800587B002030B10268034B04489A4208BFA1
:10BC28000020704702487047DD55AABB8208F00023
:10BC38007108F00038B50D460446B0B1A0220021C5
:10BC4800043000F045FD95B12946082204F164004E
:10BC580000F044FD082205F1200104F1840000F001
:10BC68003DFD044B2360002038BD034838BD034820
:10BC780038BD00BFDD55AABB7108F0008308F0008D
:10BC88002DE9F74305460E4699461146FFF7C2FFD0
:10BC98000446002840F08480002E00F085800029AA
:10BCA80000F08480B9F1200F40F0828005F144044F
:10BCB800082205F10408204600F010FD05F12407CC
:10BCC80008223146404600F009FD06F1200108220D
:10BCD800384600F003FD02A94FF4807041F8049D36
:10BCE80000F0A6FA002865D1334A4FF48073136038
:10BCF800012193600823314A00F04AFB01210846DC
:10BD080005232F4A00F044FB0823424601211C204A
:10BD180000F03EFB08233A460121032000F038FBDF
:10BD2800224608230121022000F032FB0823254A7D
:10BD380001211A2000F02CFB0523234A01211B2096
:10BD480000F026FB0823214A0121142000F020FBE3
:10BD580008231F4A0121152000F01AFB082305F1CA
:10BD680064020121162000F013FB082305F1840268
:10BD78000121172000F00CFB0823164A01210B2093
:10BD880000F006FB00F060FB0446019800F0EEFAB4
:10BD9800114B002C18BF1C46A421284600F09AFC21
:10BDA800204603B0BDE8F0830C4CF9E70C4CF7E7EC
:10BDB8000C4CF5E7084CEFE790B0025050DC0F0050
:10BDC800C8DC0F0010DC0F00B4DC0F0074DC0F00BF
:10BDD80094DC0F0030DC0F008408F0007608F000D7
:10BDE8008008F0008108F0002DE9F041069F044624
:10BDF80015461E46FFF71EFF38B93B463246294610
:10BE08002046BDE8F041FFF73BBFBDE8F0810000E8
:10BE18000C4BC2691A60826943F8042C426943F8E2
:10BE2800082C026943F80C2CC26843F8102C82686D
:10BE380043F8142C426843F8182C026843F81C2C69
:10BE4800704700BF5CB602500C4B1B68C3610C4BBB
:10BE58001B6883610B4B1B6843610B4B1B680361B9
:10BE68000A4B1B68C3600A4B1B688360094B1B683D
:10BE78004360094B1B680360704700BF5CB6025003
:10BE880058B6025054B6025050B602504CB6025042
:10BE980048B6025044B6025040B6025030B102686B
:10BEA800034B04489A4208BF002070470248704775
:10BEB800DD55AABB0202F0000002F00038B50446C6
:10BEC80068B1051D2846702100F004FC2846202290
:10BED800044900F0FBFB044B2360002038BD0348F5
:10BEE80038BD00BFECDC0F00DD55AABB0002F00036
:10BEF800294B2DE9F04304460E4615460FCB85B075
:10BF08006F468DE80F002DB94FF00009484605B07F
:10BF1800BDE8F0832046FFF7C1FF81460028F5D130
:10BF2800231D0193636AA3BB236F8BB1C3F1400840
:10BF3800A84528BFA84604F13000314618444246B7
:10BF480000F0C4FB236F434446442367A5EB080570
:10BF5800226F402A06D104F13001384600F0CCFBAC
:10BF68000023236705F03F0835F03F0505D031462B
:10BF78002A46384600F0C0FB2E44B8F1000FC3D063
:10BF88004246314604F1300000F0A0FBC4F870804E
:10BF9800BCE7DFF80890B9E7DCDC0F000C02F00022
:10BFA8002DE9FF41144B04460E460FCB8DE80F00D8
:10BFB8002046FFF773FF8046B0B9CEB1636A251DEE
:10BFC80001953BB901236362226F04F13001684691
:10BFD80000F092FB2B46043E243453F8042B12BA8B
:10BFE800A34246F8042FF8D1404604B0BDE8F081DA
:10BFF800DFF80880F8E700BFDCDC0F000502F0007E
:10C00800084B1B681B0EF02B08D1074B1A68074B0F
:10C018009A4205D1064B00201860704705207047EA
:10C028000620704728B9025024BA02500000E020C8
:10C038000CBA025030B500220C4C490013460238A5
:10C0480040F6FC75904202F10102CABF23602560E8
:10C058005B181E2A04F10404F4D1054A194413603C
:10C06800044B054A19609A6030BD00BF00B0025009
:10C0780078B002507CB0025020F80F0030B51E4B4B
:10C0880085B01A46196800910099CC07FAD500F1D5
:10C09800A05000F52C408000016813680193019BB3
:10C0A800D807FAD5154B164C1868164D1F302023A3
:10C0B80090FBF3F00138002810DA0023013040012A
:10C0C80053B1A0F120014FF00042134204D10138CE
:10C0D80081424FEA5202F8D105B030BD136803938C
:10C0E800039BDB07FAD5431823602B680293029B56
:10C0F800002BE3D10138DEE7B4B00250ACB00250F7
:10C10800E4B00250DCB002507FB51C681CB901F0E5
:10C118001F041F2C27D1174C254626680196019E1F
:10C12800F607FAD500F1A05000F52C408000006811
:10C138002C680394039CE407FAD50F4C00EB6110BC
:10C1480020600E4801F01F04006802901F2C18BFE1
:10C15800C94302980FBF106001F01F0100FA01F1F6
:10C1680011600021196010684300C00F136004B00B
:10C1780070BD00BFB4B00250E4B00250DCB0025051
:10C188000C4B18603F3020F03F0089014030586068
:10C198009960D9601961596199611C330648196021
:10C1A80082B002680192019AD207FAD5196002B0EA
:10C1B800704700BF90B00250B4B0025038B5A0F13B
:10C1C8002003B3F5426F05462CD88F2826D800F1F6
:10C1D800470300F16604DB064FEA541400D001342B
:10C1E80064013F34A409013411B1A1421AD30C46A9
:10C1F800E3004FF48050B0FBF3F0202828BF202044
:10C2080002B11060084B01221A602146FFF712FFA5
:10C2180028462146FFF7B4FF002038BD00F11F046F
:10C228006409DDE7014838BD1CB802502221F0003E
:10C238000A460021FFF7C2BFF0B5464B89B01D463C
:10C248001C680194019CE407FAD5434BDFF810C140
:10C25800DFF810E113449B000A181B681E2A88BFE8
:10C26800C0F11E011F330A185B095A43B2F5806FEB
:10C2780088BF4FF480614FF0000484BFB1FBF3F135
:10C28800091A00F1A05000F52C402746A14233DCE2
:10C298002A680492049AD207FAD5304A12682968A3
:10C2A80005910599CF07FAD52D482E4C026000223A
:10C2B80016469A4202F1010140D12A4C134621F058
:10C2C800010100268B423CD32B680693069BDE07B0
:10C2D800FAD5254B1B682C680794079CE407FAD508
:10C2E800036000231F481C469A422DD11D4A002096
:10C2F8008B422CD309B0F0BD2A680292029AD20769
:10C30800FAD50219920012682E680396039EF60762
:10C31800FAD5CCF8002000229A4202F1010206D197
:10C328001E4622F00102964204D30134AEE7CEF84D
:10C338000070F1E7CEF800700136F4E726600A468F
:10C34800B7E726600133BDE704600133CCE710602E
:10C358000133CDE7B4B0025024AC00147CB00250D5
:10C36800D4B00250D8B0025078B0025008B540B1ED
:10C37800202801464FF0070228BF20210020FFF7A0
:10C388005BFF024B00221A6008BD00BF1CB80250B8
:10C39800F0B5294D85B02C462E680096009EF6070C
:10C3A800FAD500F1A05000F52C40800005682068FF
:10C3B80001900198C707FAD52048214F056002EB84
:10C3C8008306B24229D15A1C1D4E22F001020027D1
:10C3D800934227D323680293029BDE07FAD5194BB1
:10C3E8000B449B001B681F335B099A4213D22168D8
:10C3F80003910399C907FAD5154400219B1A104ADD
:10C4080005600846994210D35A1C0D4922F00102D2
:10C41800002093420CD305B0F0BD52F804EBC7F8E6
:10C4280000E0CEE737600133D2E710600131E9E779
:10C4380008600133EDE700BFB4B00250D4B0025039
:10C44800D8B0025024AC00142DE9F041814B1D688E
:10C4580098682033A0B01E461A680192019AD7073F
:10C46800FAD57D4B7D4A1A6032680292029AD40747
:10C47800FAD57B4A1A607B4A1446116803910399DE
:10C48800C907FAD5784A1168C1F34021376804977B
:10C49800049FFF07FAD5754F1F6027680597059F0A
:10C4A800FF07FAD51768002900F0CF80B90540F1D9
:10C4B800CC80316806910699CF07FAD56C49196086
:10C4C800216807910799C907FAD51168C1F3402176
:10C4D80037680897089FFF07FAD5664F1F602768D7
:10C4E8000997099FFF07FAD51268002900F0AF8065
:10C4F800910540F1AC8032680A920A9AD207FAD5BF
:10C50800564A1A6032680B920B9AD707FAD55A4ADC
:10C518001A6031680C910C99CC07FAD55749196003
:10C5280031680D910D99C907FAD5554919603168D7
:10C538000E910E99CF07FAD55249196031680F91BB
:10C548000F99CC07FAD550491960504B1E46196807
:10C5580010911099C907FAD53F4C4D4B23603368A9
:10C568001193119BDB07FAD54A4B2360336812936A
:10C57800129BDF07FAD5484B23603A4B9846196857
:10C5880013911399C907FAD5324F38603368149359
:10C59800149BDB07FAD5226033681593159BD807DF
:10C5A800FAD53E4B236033681693169BD907FAD504
:10C5B8003B4B236033681793179BDA07FAD5394B3F
:10C5C800236033681893189BDB07FAD5364B236032
:10C5D80033681993199BD807FAD5344B236033680D
:10C5E8001A931A9BD907FAD5314B236033681B93EA
:10C5F8001B9BDA07FAD52F4B236000F037FC08BBEA
:10C60800D8F800301C931C9BDB07F9D53D603368D4
:10C618001D931D9BD907FAD5274B236033681E93BA
:10C628001E9BDA07FAD5254B2360D8F800301F93F4
:10C638001F9BDB07F9D50C4B1B6813F4805F204B5D
:10C6480008BF184620B0BDE8F0811E48FAE71E482A
:10C65800F8E700BF90B0025080B0025000100251BD
:10C66800C01F7229B4B0025088B00250C0CF01294F
:10C67800C01F0E29C03F002940010249003184A88B
:10C6880000001649400108A180440888B0B0025053
:10C69800C044708880077A41C0077E4100006A491B
:10C6A8008006164940006E490002002100822021C0
:10C6B800408220218082242140A161A100C86151CB
:10C6C8000308F1000108F1000208F10001F094B834
:10C6D80001F0BBB80A46002101F0B7B801EB8202AD
:10C6E80004388A4201D10020704752F8043D1BBA31
:10C6F80040F8043FF5E700002DE9F74F314B446857
:10C708008046924699461A68002AFCD12E4B9B46D1
:10C718001A68002AFCD14FF0FF30019100F098FC14
:10C72800802000F09BFC294D294A2A4F2A4E0123DC
:10C7380007202B60A2F59E72C2F83C011360636A61
:10C748003B60A36A3360D8F8003042F8043CD8F85C
:10C758000830204698470199D9F80030002BFBD1C2
:10C76800BAF1000F20D11D4B04221A60D9F800300D
:10C77800002BFBD1DBF800A0BAF1000FFAD1D8F8F2
:10C788000C30204698473B6863623368A362144BB9
:10C79800C3F800A0C3F844A1D9F80030002BFBD19E
:10C7A8002B6003B0BDE8F08F236A012B04BF0C4A4D
:10C7B80013600C4B40201960C3F804A000F054FC2F
:10C7C800D4E700BF10B9025020BC025018B802507C
:10C7D80000B90250CCB70250D0B70250C8B70250C7
:10C7E80084B6025028BC025010B5544B98B0194674
:10C7F8001A680192019AD207FAD5514B514A1A6028
:10C808000A680292029AD407FAD54F4A1A600A684F
:10C818000392039AD007FAD54C4818600A68049224
:10C82800049AD207FAD54A4A1A600A680592059A04
:10C83800D407FAD5474A1A600A680692069AD207B8
:10C84800FAD5454A1A600A680792079AD407FAD5B2
:10C85800424A1A600A680892089AD207FAD5404AEA
:10C868001A600A680992099AD407FAD53D4A1A60EB
:10C878000A680A920A9AD207FAD53B4A1A600A68E5
:10C888000B920B9AD407FAD5384A1A600A680C92A8
:10C898000C9AD207FAD5364A1A600A680D920D9A90
:10C8A800D407FAD5334A1A600A680E920E9AD2074C
:10C8B800FAD5314A1A600A680F920F9AD407FAD546
:10C8C8002E4A1A600A681092109AD207FAD52C4A92
:10C8D8001A601A4B19461C681194119CE407FAD582
:10C8E800174B1860086812901298C407FAD51A6096
:10C8F8000A681392139AD007FAD5124A1A600A687E
:10C908001492149AD207FAD51E4A1A600A68159228
:10C91800159AD407FAD51C4A1A600A681692169A0C
:10C92800D007FAD5194A1A600A681792179AD207D7
:10C93800FAD5174A1A6018B010BD00BFB0B002503F
:10C9480080B00250009365210004319040966590B4
:10C958000083612100C3302100C36490008161908D
:10C9680000461021008111210041442100C32029E3
:10C978000C4610C80086312100C3602140C1282917
:10C98800409665210013319040962529594614C8D0
:10C998004004324910B5494B94B019461A680092C0
:10C9A800009AD207FAD5464B464A1A600A6801929D
:10C9B800019AD407FAD5444A1A600A680292029A80
:10C9C800D007FAD5414818600A680392039AD2073B
:10C9D800FAD53F4A1A600A680492049AD407FAD52D
:10C9E8003C4A1A600A680592059AD207FAD53A4A6B
:10C9F8001A600A680692069AD407FAD5374A1A6066
:10CA08000A680792079AD207FAD5354A1A600A685F
:10CA18000892089AD407FAD5324A1A600A68099225
:10CA2800099AD207FAD5304A1A600A680A920A9A0D
:10CA3800D407FAD52D4A1A600A680B920B9AD207C6
:10CA4800FAD52B4A1A600A680C920C9AD407FAD5C0
:10CA5800284A1A600A680D920D9AD207FAD5264A12
:10CA68001A600A680E920E9AD407FAD5234A1A60F9
:10CA78000A680F920F9AD207FAD5214A1A600F4B0B
:10CA880019461C681094109CE407FAD50C4B1860E2
:10CA9800086811901198C407FAD51A600A681292AA
:10CAA800129AD007FAD5174A1A600A681392139A8D
:10CAB800D207FAD5144A1A6014B010BDB0B00250AB
:10CAC80080B00250809065210004099040966590DE
:10CAD80080806121802008218020649000816190FD
:10CAE8000046102100811121004144218020202985
:10CAF800024610C80086092180206021402128298B
:10CB08004096652140962529594614C810B5504BC2
:10CB180096B01C461A680192019AD207FAD54D4B75
:10CB28004D4A1A6022680292029AD207FAD54B4AF5
:10CB38001A604B4A42EA804022680392039AD2075D
:10CB4800FAD5186022680492049AD007FAD5454AA3
:10CB58001A60A2F5800242EA814122680592059A8C
:10CB6800D207FAD5196022680692069AD007FAD534
:10CB78003D4A1A6022680792079AD107FAD53B4ABC
:10CB88001A6022680892089AD207FAD5384A1A60B9
:10CB980022680992099AD007FAD5364A1A6022689B
:10CBA8000A920A9AD107FAD5334A1A6022680B9278
:10CBB8000B9AD207FAD5314A1A6022680C920C9A5D
:10CBC800D007FAD52E4A1A6022680D920D9AD1071D
:10CBD800FAD52C4A1A6022680E920E9AD207FAD514
:10CBE800294A1A6022680F920F9AD007FAD5274A65
:10CBF8001A60216810911099C907FAD51A60144B68
:10CC08001A46196811911199C807FAD5114B20498C
:10CC18001960116812911299C907FAD51D4919604E
:10CC2800116813911399CC07FAD50B49196011684B
:10CC380014911499C807FAD5174919601168159104
:10CC48001599C907FAD5154A1A6016B010BD00BF64
:10CC5800B0B0025080B002504004419000862929AB
:10CC6800D81001C84014419040142129401465216E
:10CC78000034409000310C90C0400C90C030202906
:10CC880040960D9000416090031645C8008611211A
:10CC980000416021594644C84014459040142D90E5
:10CCA80070B5264888B0054604680094009CE607DD
:10CCB800FAD52348234C0460234C44EA83432C6868
:10CCC8000194019CE407FAD50360930143EA824288
:10CCD80042F0104444F4C0442B680293029BDE07E0
:10CCE800FAD504602B680393039BDB07FAD5174B2F
:10CCF80003608B0143EA814141F0104343F4C04390
:10CD08002E680496049EF607FAD503602B680593EF
:10CD1800059BDE07FAD5046041F058412B6806935D
:10CD2800069BDC07FAD5016042F058422B6807934E
:10CD3800079BDB07FAD5026008B070BDB0B002509F
:10CD480080B00250C021022980710098806118903B
:10CD580000B5374B8FB019461A680092009AD2076F
:10CD6800FAD5344B344A1A600A680192019AD007FE
:10CD7800FAD5324A1A600A680292029AD207FAD59C
:10CD88002F4A1A600A680392039AD007FAD52D4AE7
:10CD98001A600A680492049AD207FAD52A4A1A60D5
:10CDA8000A680592059AD007FAD5284A1A600A68CF
:10CDB8000692069AD207FAD5254A1A600A68079297
:10CDC800079AD007FAD5234A1A600A680892089A7F
:10CDD800D207FAD5204A1A600A680992099AD00738
:10CDE800FAD51E4A1A600A680A920A9AD207FAD530
:10CDF8001B4A1A6008680B900B98C007FAD51A608E
:10CE08000A680C920C9AD007FAD5164A1A600A6872
:10CE18000D920D9AD207FAD5134A1A600E210D23E6
:10CE28000F220020FFF73CFF0FB05DF804FB00BFA6
:10CE3800B0B0025080B002508043012940633921CC
:10CE4800807001298020542100D13490C040349052
:10CE5800C0302029C0530D9000413890832308C862
:10CE680080E3102100413821CF4308C82DE9F04163
:10CE780092B0012303930493624B1D461A680592EE
:10CE8800059AD207FAD5604C604B2360604B19466F
:10CE98001A680692069AD707FAD55E4B1A68D6041E
:10CEA80000F1A8802A680792079AD007FAD55A4A4B
:10CEB80022600A680892089AD207FAD51E68C6F353
:10CEC8000036002E40F098801220FFF7D7F807466A
:10CED8001320FFF7D3F887428CBF12201320FFF7E7
:10CEE800CDF8471EFFF734FF03AB01AA39461220DD
:10CEF800FFF70AF904AB804602AA39461320FFF768
:10CF080003F900EB4800022832D003283ED001285C
:10CF180074D12B680993099BDB07FAD53F4B236033
:10CF28002B680A930A9BD807FAD53D4B23602B68D8
:10CF38000F930F9BD907FAD53A4B23602B681093B0
:10CF4800109BDA07FAD5384B23602B681193119B95
:10CF5800DB07FAD5354B2360013F25D5102319226D
:10CF680018210020FFF79CFE304612B0BDE8F08182
:10CF78002B680B930B9BD907FAD52D4B23602B6895
:10CF88000C930C9BDA07FAD52A4BCFE72B680D9345
:10CF98000D9BDB07FAD5284B23602B680E930E9B5D
:10CFA800D807FAD5254BC1E703AB01AA39461220A9
:10CFB800FFF7AAF804AB044602AA39461320FFF784
:10CFC800A3F810EB440402D1FFF70EFCC4E7FFF707
:10CFD800E1FC022C08D0032C09D0012C10D1172118
:10CFE8001620FFF793FDB7E715211420F9E70F2165
:10CFF8000E20F6E7124EB7E7124EB5E7124EB3E72A
:10D00800124EB1E7B0B0025080B0025000084A5149
:10D01800B4B0025088B0025000084E5100065A4978
:10D0280040065E49000442410014424940042E492A
:10D03800000652494006564900063A4940063E490C
:10D048000608F1000708F1000408F1000508F100DE
:10D05800014B1860704700BF08BA0250014B1860B6
:10D06800704700BF04BA0250094BC2431A60043B20
:10D0780082B01B680193074B019A104204D0064AFC
:10D088001060186802B0704720BF1A680192F3E771
:10D0980004BA02504882002008BA0250054B4FF0EB
:10D0A800FF321A6053F8042C034B1A601A68034BBA
:10D0B8001A60704704BA02504882002008BA025029
:10D0C800BFF34F8F0549064BCA6802F4E062134369
:10D0D800CB60BFF34F8F00BFFDE700BF00ED00E05E
:10D0E8000400FA0541DF704708B5FFF7E9FF0000C3
:10D0F800042810B5044608D802280BD8084B1B682A
:10D108006BB12046BDE810401847831F012BF5D8A6
:10D11800FFF7D6FF0349044800F066F9EEE710BDB3
:10D128006C860020F1D00F00C0D4010000207047A9
:10D13800394B3A4A10B51860394B0020C3F82827F4
:10D14800FEF79EF930BB00F0F7F9012833D002282A
:10D1580033D0F8B94FF08042D2F8003413F480335A
:10D168001AD04FF48033C2F80034FEF76DFA002865
:10D1780050D02B4BD3F810355B054BD54FF080437F
:10D18800D3F81C3513F0B10F44D1FEF7DFF908B915
:10D1980000F050F8032010BDD2F8201511F0A90FA7
:10D1A8001FBFD2F8201501F05601C2F82015184605
:10D1B80008BF0120D9E7FFF783FF42F2107400F09F
:10D1C80041FA184A20211820FBF79AF808B1FDF710
:10D1D80016F94FF08043D3F81C2512F0B10F1EBF8B
:10D1E800D3F81C2502F04E02C3F81C25FFF79EFF5A
:10D1F8000028CFD120460C4900F0F6F80B48FDF77F
:10D2080097FA0028C6D100F04FFAFBF705F9FFF7A7
:10D2180069FFF8E7064CD2E76C8600200C00030093
:10D22800000300504C820020F1D00F00F9D00F000D
:10D23800C0D4010008B5094B4FF0FF32C3F8802075
:10D24800C3F88021C3F88420C3F88421FDF7CAFEFF
:10D25800BDE808404FF4805000F042B800E100E01B
:10D268002DE9F0410546C1F30B0090BBB5F57F2FC2
:10D278002FD8194EDFF864E03368002A14BF062758
:10D2880002278446072B06D9BCF1000F00D0336073
:10D298000420BDE8F0811C0104F1804202F5F0325F
:10D2A8007444C2F80058C2F80418C4F80878D2F8D0
:10D2B8000088454503F101034FF0010CE2D1D2F893
:10D2C80004289142DED1D4F808289742DAD1336095
:10D2D800DFE70720DDE700BF7086002000E001409F
:10D2E80030B505461B4889B00022C0F57F21FFF7FD
:10D2F800B7FFEFF305820023D5E9004183F31488D3
:10D3080083F3108883F3118883F31388C2F3080228
:10D318003AB984F308884FF0FF339E46084709B0AE
:10D3280030BD4FF0FF35203CCDE90033CDE9023365
:10D33800CDE90551049320224FF0807369462046B9
:10D34800079300F059FA84F30888AE466FF0060395
:10D358001847E4E700800F0000B10047704700005D
:10D36800F8B51D4F3B7805460C461646E3B94FF015
:10D378008043D3F81824D10305D401229A60D3F846
:10D388001824D203FBD5FBF789F908B1FDF737F864
:10D39800124A13480021FBF7ABF9104A1148012142
:10D3A800FBF7A6F901233B702846FBF7C9F994B1AE
:10D3B8004FF400474FF4FA7000214FF47A720023BB
:10D3C800E4FB070100F07AF9324601462846BDE839
:10D3D800F840FBF799B9F8BD7486002061D30F00B7
:10D3E8000CDD0F0010DD0F000A4601460148FFF76B
:10D3F800B7BF00BF788600200A4601460148FFF7FC
:10D40800AFBF00BF90860020014B01221A70704701
:10D41800A88600202DE9F74F06468846A8EB0605A2
:10D428002D0B02F6FF77144600F00CF9082D28BFE3
:10D4380008252B03DFF868B001933F0B0CB923468E
:10D4480029E0BD422CBFBA46AA464FF00002514619
:10D45800304634BFDDF80490A146FDF78DFD034644
:10D46800C8B909F1030222F0030241463046FDF72C
:10D4780075FD034678B9DBF830304B44CBF83030D3
:10D48800FDF7CCFFA7EB0A07A4EB09044E44C844F8
:10D4980003460028D2D0184603B0BDE8F08F00BF7D
:10D4A800587B002010B5FEF7CBF8124A916C01F5B5
:10D4B80000535C68104B9C4218D1D2E90C3293425D
:10D4C80016D0884204D1BDE810400020FDF7A6BF61
:10D4D800D21A02F6FF7222F47F6222F00F02194478
:10D4E8001844FFF797FF0028EDD010BD0320FCE794
:10D4F8000020FAE7587B0020DBE5B15138B50C4B2A
:10D508000C48DA6A5D6A9C6CAC2A02BF5B6BE41853
:10D51800ED1A2A46214600F038F938B100F0C4F86F
:10D5280029462046BDE83840FDF73EBD38BD00BF5E
:10D53800587B002000800F0070B5264CE36AAA2BA8
:10D5480033D005D8012B0BD0A52B2AD0002070BDD5
:10D55800AC2BFBD1FFF7A6FF28BBFFF7CFFF22E0DC
:10D56800A66C656AFEF746F886422AD1FEF742F8AD
:10D5780000222946FBF724F9A36A984202BF012337
:10D58800C4E90703A56100241348FEF727F8134BE5
:10D59800134800221A70FDF741FF80B944B90120F1
:10D5A800D5E7FFF77FFF0124EEE7FFF7A7FFEAE7DC
:10D5B8000120FEF749F80028F1D00220C7E7032030
:10D5C800C5E7236BEA1AF1181844FFF723FF002870
:10D5D800D9D1CBE7587B00207C7B0020A88600208F
:10D5E80011D40F000A4AD2F800347BB1094800234D
:10D5F800D2F80815D940C90748BF03F5C07103F12F
:10D60800010348BF42F82100072BF1D1704700BF42
:10D61800000001403546526E024B1B780BB1FFF7F4
:10D62800E1BF7047AA860020054B002282B0C3F8EC
:10D638000021D3F800310193019B02B0704700BF6D
:10D6480000000140F8B5134E337813BB124DD5F8DE
:10D658000034E3B1D5F80445104B640904EB4404E5
:10D6680049F63F47BC428CBF002201221A70FFF7DF
:10D67800B9FFBC4203D9D5F80C35DB0703D50849F7
:10D68800A008FFF7B9FE074B4FF480321A60012358
:10D698003370F8BDA986002000000140AA8600204A
:10D6A80021D60F0000E100E0034BD3F800340BB1A2
:10D6B800FFF798BF704700BF0000014053EA020C13
:10D6C80061D02DE9F04BB3FA83F51E0007BFB2FA1B
:10D6D80082F502FA05F403FA05F41646C5F12005A9
:10D6E8001EBF22FA05F73C43203556EA044C4FEAA0
:10D6F800144418BF0134A3464FF00009C8469042AD
:10D7080071EB030C39D3094207BFB0FA80F700FA6E
:10D7180007F6B1FA81F701FA07F6C7F120071EBF2D
:10D7280020FA07FC46EA0C062037B6FBFBFC7F1BF9
:10D73800103F07F01F04C4F120060CFA04F42CFA79
:10D7480006F644BF34460026202FA4BF26460024F0
:10D7580054EA060C08BF012418EB040849EB060933
:10D76800A4FB027CC01B06FB02CC04FB03CC71EBC0
:10D778000C01904271EB030CC5D20B460246494698
:10D788004046BDE8F08BB2FBF3F29AB330B594464D
:10D798000F2A18D902460B4640EA010414F0030F79
:10D7A80002D00CF1FF3C11E0194610460432043354
:10D7B8000C680568A54206D110461946ACF1040C60
:10D7C800BCF1040FF0D8BCF1010C0FD00A46034697
:10D7D80084441146184601330132047891F800E078
:10D7E800744503D1184611466345F2D100780B7889
:10D7F800C01A30BD00207047844640EA010313F088
:10D80800030F18D18446202A0BD32DE9F007B1E87D
:10D81800F807A0E8F807A2F12002202AF7D2BDE80D
:10D82800F007042A07D351F8043B40F8043BA2F15F
:10D838000402042AF7D2002A05D011F8013B00F8A7
:10D84800013B013AF9D1604670478446002A2DD041
:10D8580010F0030F04D000F8011B013A26D0F7E7B7
:10D86800C9B241EA012141EA0141202A12D3A2F1B9
:10D8780020022DE9F0030B460C460D460E460F46D6
:10D8880088468946A0E8FA03203AFBD2BDE8F003AF
:10D8980020320BD0042A05D340F8041B043A05D0E3
:10D8A800042AF9D200F8011B013AFBD160467047FF
:10D8B80000F1010110F0030F11D010F8012B002A1C
:10D8C80023D010F0030F0AD010F8012B002A1CD027
:10D8D80010F0030F03D010F8012B002A15D02DE902
:10D8E80070004FF001324FF0803350F8044BA4EB36
:10D8F800020525EA04051D4000D1F6E7A0F1040061
:10D9080070BC10F8012B002AFBD1A0EB0100704776
:08D91800459C0F00359C0F0037
:08D9200045AE0F0065A80F00E1
:10D92800B86A0020F47A0020057B0020C06A002035
:04D93800F4000000F7
:0CD93C0000000000030000004DA40F00DC
:08D94800D1A80F00000000004F
:08D95000898F0F0000000000A8
:10D9580031A00F00000000003DA10F0000000000F2
:08D96800C98D0F000000000052
:08D970007D8F0F000000000094
:10D97800000000000000000035AF0F00001000009C
:04D98800000010008B
:10D98C0000000000F45700207D840F000000000010
:10D99C00000000000338FDD87047000000100000A4
:10D9AC000400000001000000618C0F00858C0F004A
:10D9BC00958C0F00A58C0F00F98C0F006D8C0F004F
:10D9CC00718C0F00758C0F0000100000040000001B
:10D9DC00010000000D8E0F00ED8D0F00DD8D0F008E
:10D9EC0015900F00C98F0F00B18D0F00B58D0F0072
:10D9FC00B98D0F00B5940F005B940F00AB990F001D
:10DA0C001B9A0F003B9A0F00AF930F0071930F00FE
:10DA1C0047990F0000000000480000000020400063
:10DA2C00000000003D9B0F00BD9B0F004D9B0F00A5
:10DA3C002000000000000000000000000D0E0F1080
:10DA4C000100000768D90F0070D90F000800000012
:10DA5C0058D90F0068D90F000800000050D90F00EA
:10DA6C0058D90F000800000048D90F0050D90F00FA
:10DA7C000800000070D90F0078D90F0008000000D2
:10DA8C0079BF36566A03E67A7AE0DEA5E60CC2D494
:10DA9C00891691A6D6B27089F3A939068BD3F5B045
:10DAAC00C6348823E298557EB7DEB535947381A0D1
:10DABC0084A79A49BC29317240EAF46CC6F47F9170
:10DACC00011101FF0100000000000000021702FE1E
:10DADC009400000014DB0F000000000000000000A8
:10DAEC000000000001010000010000000000000027
:10DAFC0002050000210000000000000000000000F2
:10DB0C000000000000000000011104FC04000000F3
:10DB1C0000000000021104FC0400000000000000E2
:10DB2C00032104FC0410000000000000041101FF9C
:10DB3C000100000000000000051102FE04000000BE
:10DB4C0000000000061104FC0400000000000000AE
:10DB5C00071104FC0400000000000000081701FF7E
:10DB6C0022000000F0DA0F00091001FF0100000094
:10DB7C008CDB0F0000000000000000000000000023
:10DB8C0000000000011704FC98000000CCDA0F0024
:10DB9C00021704FCDC000000B4DB0F0000000000E6
:10DBAC0000000000000000000107000098000000C9
:10DBBC00CCDA0F00020100000100000000000000A0
:10DBCC000305000041000000000000000000000000
:10DBDC00000000000000000044667554617267008C
:10DBEC0050EADA308883B89F604F15F30000C98E75
:10DBFC00000000000338FDD870470C000C0000003A
:10DC0C0058020000FFFFFFFFFFFFFFFFFFFFFFFFBA
:10DC1C0000000000000000000000000001000000F7
:10DC2C00FFFFFFFFFCFFFFFFFFFFFFFFFFFFFFFFFB
:10DC3C0000000000000000000000000001000000D7
:10DC4C00FFFFFFFF512563FCC2CAB9F3849E17A7DF
:10DC5C00ADFAE6BCFFFFFFFFFFFFFFFF0000000077
:10DC6C00FFFFFFFF0000000096C298D84539A1F4D1
:10DC7C00A033EB2D817D0377F240A463E5E6BCF87D
:10DC8C0047422CE1F2D1176BF551BF376840B6CB48
:10DC9C00CE5E316B5733CE2B169E0F7C4AEBE78E44
:10DCAC009B7F1AFEE242E34FFFFFFFFF7F00000065
:10DCBC00800000000000000000000000FFFFFFFFDC
:10DCCC007F00000080000000000000000000000049
:10DCDC00020000000000000019BE0F0051BE0F0032
:10DCEC0067E6096A85AE67BB72F36E3C3AF54FA5E1
:10DCFC007F520E518C68059BABD9831F19CDE05B0D
:08DD0C007886002090860020BB
:10DD140000100140110004000090D003FF00FFFF39
:01DD240001FD
:020000020000FC
:020000041000EA
:0410140000800F0049
:0410180000E00F00E5
:04000003F000824542
:00000001FF
